{
  "contractName": "LoanContract",
  "abi": [
    {
      "inputs": [
        {
          "internalType": "uint256",
          "name": "_requiredPayment",
          "type": "uint256"
        },
        {
          "internalType": "uint256",
          "name": "_requiredRenterCollateral",
          "type": "uint256"
        },
        {
          "internalType": "uint256",
          "name": "_rentTime",
          "type": "uint256"
        },
        {
          "internalType": "uint256",
          "name": "_deadline",
          "type": "uint256"
        },
        {
          "internalType": "uint256",
          "name": "_graceTimePeriod",
          "type": "uint256"
        }
      ],
      "payable": true,
      "stateMutability": "payable",
      "type": "constructor"
    },
    {
      "anonymous": false,
      "inputs": [],
      "name": "Aborted",
      "type": "event"
    },
    {
      "anonymous": false,
      "inputs": [],
      "name": "ContractFunded",
      "type": "event"
    },
    {
      "anonymous": false,
      "inputs": [],
      "name": "Created",
      "type": "event"
    },
    {
      "anonymous": false,
      "inputs": [],
      "name": "InvitationToTrade",
      "type": "event"
    },
    {
      "anonymous": false,
      "inputs": [],
      "name": "ItemLoaned",
      "type": "event"
    },
    {
      "anonymous": false,
      "inputs": [],
      "name": "ItemReturned",
      "type": "event"
    },
    {
      "anonymous": false,
      "inputs": [],
      "name": "LenderDisputed",
      "type": "event"
    },
    {
      "anonymous": false,
      "inputs": [],
      "name": "LenderInactivity",
      "type": "event"
    },
    {
      "anonymous": false,
      "inputs": [],
      "name": "LenderPaid",
      "type": "event"
    },
    {
      "anonymous": false,
      "inputs": [],
      "name": "RenterDisputed",
      "type": "event"
    },
    {
      "anonymous": false,
      "inputs": [],
      "name": "RenterInactivity",
      "type": "event"
    },
    {
      "anonymous": false,
      "inputs": [],
      "name": "RenterRefunded",
      "type": "event"
    },
    {
      "anonymous": false,
      "inputs": [],
      "name": "ReturnScheduled",
      "type": "event"
    },
    {
      "constant": true,
      "inputs": [],
      "name": "lender",
      "outputs": [
        {
          "internalType": "address payable",
          "name": "",
          "type": "address"
        }
      ],
      "payable": false,
      "stateMutability": "view",
      "type": "function"
    },
    {
      "constant": true,
      "inputs": [],
      "name": "renter",
      "outputs": [
        {
          "internalType": "address payable",
          "name": "",
          "type": "address"
        }
      ],
      "payable": false,
      "stateMutability": "view",
      "type": "function"
    },
    {
      "constant": true,
      "inputs": [],
      "name": "standing",
      "outputs": [
        {
          "internalType": "enum LoanContract.Standing",
          "name": "",
          "type": "uint8"
        }
      ],
      "payable": false,
      "stateMutability": "view",
      "type": "function"
    },
    {
      "constant": true,
      "inputs": [],
      "name": "state",
      "outputs": [
        {
          "internalType": "enum LoanContract.State",
          "name": "",
          "type": "uint8"
        }
      ],
      "payable": false,
      "stateMutability": "view",
      "type": "function"
    },
    {
      "constant": false,
      "inputs": [],
      "name": "abort",
      "outputs": [],
      "payable": false,
      "stateMutability": "nonpayable",
      "type": "function"
    },
    {
      "constant": false,
      "inputs": [],
      "name": "fundAsRenter",
      "outputs": [],
      "payable": true,
      "stateMutability": "payable",
      "type": "function"
    },
    {
      "constant": false,
      "inputs": [],
      "name": "fuzzyAbort",
      "outputs": [],
      "payable": false,
      "stateMutability": "nonpayable",
      "type": "function"
    },
    {
      "constant": false,
      "inputs": [],
      "name": "Giving",
      "outputs": [],
      "payable": false,
      "stateMutability": "nonpayable",
      "type": "function"
    },
    {
      "constant": false,
      "inputs": [],
      "name": "Recieved",
      "outputs": [],
      "payable": false,
      "stateMutability": "nonpayable",
      "type": "function"
    },
    {
      "constant": false,
      "inputs": [],
      "name": "scheduleReturn",
      "outputs": [],
      "payable": false,
      "stateMutability": "nonpayable",
      "type": "function"
    },
    {
      "constant": false,
      "inputs": [],
      "name": "confirmReturned",
      "outputs": [],
      "payable": false,
      "stateMutability": "nonpayable",
      "type": "function"
    },
    {
      "constant": false,
      "inputs": [],
      "name": "payLender",
      "outputs": [],
      "payable": false,
      "stateMutability": "nonpayable",
      "type": "function"
    },
    {
      "constant": false,
      "inputs": [],
      "name": "refundRenterCollateral",
      "outputs": [],
      "payable": false,
      "stateMutability": "nonpayable",
      "type": "function"
    },
    {
      "constant": false,
      "inputs": [],
      "name": "neverReturned",
      "outputs": [],
      "payable": false,
      "stateMutability": "nonpayable",
      "type": "function"
    },
    {
      "constant": false,
      "inputs": [],
      "name": "cannotReturn",
      "outputs": [],
      "payable": false,
      "stateMutability": "nonpayable",
      "type": "function"
    },
    {
      "constant": false,
      "inputs": [],
      "name": "blameReturn",
      "outputs": [],
      "payable": false,
      "stateMutability": "nonpayable",
      "type": "function"
    },
    {
      "constant": false,
      "inputs": [],
      "name": "claimFalseReturn",
      "outputs": [],
      "payable": false,
      "stateMutability": "nonpayable",
      "type": "function"
    },
    {
      "constant": false,
      "inputs": [],
      "name": "blameGive",
      "outputs": [],
      "payable": false,
      "stateMutability": "nonpayable",
      "type": "function"
    },
    {
      "constant": false,
      "inputs": [],
      "name": "cannotGive",
      "outputs": [],
      "payable": false,
      "stateMutability": "nonpayable",
      "type": "function"
    },
    {
      "constant": false,
      "inputs": [],
      "name": "timeOutAfterGive",
      "outputs": [],
      "payable": false,
      "stateMutability": "nonpayable",
      "type": "function"
    },
    {
      "constant": false,
      "inputs": [],
      "name": "timeOutOnGive",
      "outputs": [],
      "payable": false,
      "stateMutability": "nonpayable",
      "type": "function"
    }
  ],
  "bytecode": "0x60806040526040516200364d3803806200364d833981810160405260a08110156200002957600080fd5b810190808051906020019092919080519060200190929190805190602001909291908051906020019092919080519060200190929190505050336000806101000a81548173ffffffffffffffffffffffffffffffffffffffff021916908373ffffffffffffffffffffffffffffffffffffffff160217905550346005819055508360048190555084600281905550600454600254118015620000ce5750600554600254115b62000125576040517f08c379a0000000000000000000000000000000000000000000000000000000008152600401808060200182810382526059815260200180620035f46059913960600191505060405180910390fd5b8181600202844201011062000186576040517f08c379a00000000000000000000000000000000000000000000000000000000081526004018080602001828103825260658152602001806200358f6065913960800191505060405180910390fd5b8260068190555081600881905550806007819055506000600a60006101000a81548160ff0219169083151502179055506000600a60016101000a81548160ff0219169083151502179055507f9adeddf84386b336eb7b3e18e7a6099be08fd81ea5d5142f4d2b630f8d20cf0160405160405180910390a1505050505061337d80620002126000396000f3fe60806040526004361061012a5760003560e01c80635782bbb7116100ab578063c19d93fb1161006f578063c19d93fb146102fb578063d47d1cfa14610334578063db005ad51461034b578063ddb1e58814610362578063e3a47b0014610379578063efbc7cf0146103b25761012a565b80635782bbb71461025557806360ad7c1a1461026c57806399589caa14610276578063a6cc68831461028d578063bcead63e146102a45761012a565b806330690758116100f257806330690758146101e257806335a063b4146101f95780633e1eb13414610210578063442f162c14610227578063493d4d631461023e5761012a565b8063037e041d1461012f5780631239356e14610146578063149773891461015d5780631e8ae4a7146101745780632e88ab0b1461018b575b600080fd5b34801561013b57600080fd5b506101446103c9565b005b34801561015257600080fd5b5061015b610616565b005b34801561016957600080fd5b50610172610862565b005b34801561018057600080fd5b50610189610ab6565b005b34801561019757600080fd5b506101a0610e32565b604051808273ffffffffffffffffffffffffffffffffffffffff1673ffffffffffffffffffffffffffffffffffffffff16815260200191505060405180910390f35b3480156101ee57600080fd5b506101f7610e58565b005b34801561020557600080fd5b5061020e6110b0565b005b34801561021c57600080fd5b506102256112c9565b005b34801561023357600080fd5b5061023c61164f565b005b34801561024a57600080fd5b50610253611943565b005b34801561026157600080fd5b5061026a611c09565b005b610274611e44565b005b34801561028257600080fd5b5061028b6120ac565b005b34801561029957600080fd5b506102a261242a565b005b3480156102b057600080fd5b506102b96127b0565b604051808273ffffffffffffffffffffffffffffffffffffffff1673ffffffffffffffffffffffffffffffffffffffff16815260200191505060405180910390f35b34801561030757600080fd5b506103106127d5565b6040518082600881111561032057fe5b60ff16815260200191505060405180910390f35b34801561034057600080fd5b506103496127e8565b005b34801561035757600080fd5b50610360612a35565b005b34801561036e57600080fd5b50610377612d45565b005b34801561038557600080fd5b5061038e612f82565b6040518082600381111561039e57fe5b60ff16815260200191505060405180910390f35b3480156103be57600080fd5b506103c7612f95565b005b600160009054906101000a900473ffffffffffffffffffffffffffffffffffffffff1673ffffffffffffffffffffffffffffffffffffffff163373ffffffffffffffffffffffffffffffffffffffff161461048c576040517f08c379a000000000000000000000000000000000000000000000000000000000815260040180806020018281038252601e8152602001807f4f6e6c79207468652072656e7465722063616e2063616c6c20746869732e000081525060200191505060405180910390fd5b600480600881111561049a57fe5b600a60029054906101000a900460ff1660088111156104b557fe5b14610528576040517f08c379a000000000000000000000000000000000000000000000000000000000815260040180806020018281038252600e8152602001807f496e76616c69642073746174652e00000000000000000000000000000000000081525060200191505060405180910390fd5b600954421061059f576040517f08c379a000000000000000000000000000000000000000000000000000000000815260040180806020018281038252601c8152602001807f596f75206d69737365642074686520677261636520706572696f642e0000000081525060200191505060405180910390fd5b6007600a60026101000a81548160ff021916908360088111156105be57fe5b02179055506002600a60036101000a81548160ff021916908360038111156105e257fe5b02179055507f40da1c394a6e222d4d71cf937212c0c7d08475a510a394eb302689ab06a7bc9860405160405180910390a150565b6000809054906101000a900473ffffffffffffffffffffffffffffffffffffffff1673ffffffffffffffffffffffffffffffffffffffff163373ffffffffffffffffffffffffffffffffffffffff16146106d8576040517f08c379a000000000000000000000000000000000000000000000000000000000815260040180806020018281038252601e8152602001807f4f6e6c7920746865206c656e6465722063616e2063616c6c20746869732e000081525060200191505060405180910390fd5b60058060088111156106e657fe5b600a60029054906101000a900460ff16600881111561070157fe5b14610774576040517f08c379a000000000000000000000000000000000000000000000000000000000815260040180806020018281038252600e8152602001807f496e76616c69642073746174652e00000000000000000000000000000000000081525060200191505060405180910390fd5b60095442106107eb576040517f08c379a000000000000000000000000000000000000000000000000000000000815260040180806020018281038252601c8152602001807f596f75206d69737365642074686520677261636520706572696f642e0000000081525060200191505060405180910390fd5b6007600a60026101000a81548160ff0219169083600881111561080a57fe5b02179055506002600a60036101000a81548160ff0219169083600381111561082e57fe5b02179055507f314abf31083cf6ee788cd1ef9213f244a3393ffa1e4f1a26f6bf0e63be700dee60405160405180910390a150565b600160009054906101000a900473ffffffffffffffffffffffffffffffffffffffff1673ffffffffffffffffffffffffffffffffffffffff163373ffffffffffffffffffffffffffffffffffffffff1614610925576040517f08c379a000000000000000000000000000000000000000000000000000000000815260040180806020018281038252601e8152602001807f4f6e6c79207468652072656e7465722063616e2063616c6c20746869732e000081525060200191505060405180910390fd5b600280600881111561093357fe5b600a60029054906101000a900460ff16600881111561094e57fe5b146109c1576040517f08c379a000000000000000000000000000000000000000000000000000000000815260040180806020018281038252600e8152602001807f496e76616c69642073746174652e00000000000000000000000000000000000081525060200191505060405180910390fd5b6009544210610a38576040517f08c379a000000000000000000000000000000000000000000000000000000000815260040180806020018281038252601c8152602001807f596f75206d69737365642074686520677261636520706572696f642e0000000081525060200191505060405180910390fd5b6003600a60026101000a81548160ff02191690836008811115610a5757fe5b0217905550426009819055506000600a60036101000a81548160ff02191690836003811115610a8257fe5b02179055507f372aef47c15f1f2ea3a5237168dd12141b0dfa5f3389c47ead5e71f70c741e0960405160405180910390a150565b6000809054906101000a900473ffffffffffffffffffffffffffffffffffffffff1673ffffffffffffffffffffffffffffffffffffffff163373ffffffffffffffffffffffffffffffffffffffff1614610b78576040517f08c379a000000000000000000000000000000000000000000000000000000000815260040180806020018281038252601e8152602001807f4f6e6c7920746865206c656e6465722063616e2063616c6c20746869732e000081525060200191505060405180910390fd5b6002806008811115610b8657fe5b600a60029054906101000a900460ff166008811115610ba157fe5b14610c14576040517f08c379a000000000000000000000000000000000000000000000000000000000815260040180806020018281038252600e8152602001807f496e76616c69642073746174652e00000000000000000000000000000000000081525060200191505060405180910390fd5b600954421015610c6f576040517f08c379a00000000000000000000000000000000000000000000000000000000081526004018080602001828103825260218152602001806132886021913960400191505060405180910390fd5b6008544210610ce6576040517f08c379a00000000000000000000000000000000000000000000000000000000081526004018080602001828103825260158152602001807f4c656e64696e67206861732074696d6564206f7574000000000000000000000081525060200191505060405180910390fd5b6007600a60026101000a81548160ff02191690836008811115610d0557fe5b02179055506003600a60036101000a81548160ff02191690836003811115610d2957fe5b02179055506000809054906101000a900473ffffffffffffffffffffffffffffffffffffffff1673ffffffffffffffffffffffffffffffffffffffff166108fc6005549081150290604051600060405180830381858888f19350505050158015610d97573d6000803e3d6000fd5b50600160009054906101000a900473ffffffffffffffffffffffffffffffffffffffff1673ffffffffffffffffffffffffffffffffffffffff166108fc6004549081150290604051600060405180830381858888f19350505050158015610e02573d6000803e3d6000fd5b507f2947d0330e41ff9f711a43cab2d1a2111f80d7555cbba8ac12b5b49a9bad45db60405160405180910390a150565b600160009054906101000a900473ffffffffffffffffffffffffffffffffffffffff1681565b600160009054906101000a900473ffffffffffffffffffffffffffffffffffffffff1673ffffffffffffffffffffffffffffffffffffffff163373ffffffffffffffffffffffffffffffffffffffff1614610f1b576040517f08c379a000000000000000000000000000000000000000000000000000000000815260040180806020018281038252601e8152602001807f4f6e6c79207468652072656e7465722063616e2063616c6c20746869732e000081525060200191505060405180910390fd5b6004806008811115610f2957fe5b600a60029054906101000a900460ff166008811115610f4457fe5b14610fb7576040517f08c379a000000000000000000000000000000000000000000000000000000000815260040180806020018281038252600e8152602001807f496e76616c69642073746174652e00000000000000000000000000000000000081525060200191505060405180910390fd5b600954421061102e576040517f08c379a000000000000000000000000000000000000000000000000000000000815260040180806020018281038252601c8152602001807f596f75206d69737365642074686520677261636520706572696f642e0000000081525060200191505060405180910390fd5b6005600a60026101000a81548160ff0219169083600881111561104d57fe5b021790555060075442016009819055506000600a60036101000a81548160ff0219169083600381111561107c57fe5b02179055507f4e73a1b9f8e640a4e30bf2236b3650b1595a8745f12996cb11f164edae221d4e60405160405180910390a150565b6000809054906101000a900473ffffffffffffffffffffffffffffffffffffffff1673ffffffffffffffffffffffffffffffffffffffff163373ffffffffffffffffffffffffffffffffffffffff1614611172576040517f08c379a000000000000000000000000000000000000000000000000000000000815260040180806020018281038252601e8152602001807f4f6e6c7920746865206c656e6465722063616e2063616c6c20746869732e000081525060200191505060405180910390fd5b600080600881111561118057fe5b600a60029054906101000a900460ff16600881111561119b57fe5b1461120e576040517f08c379a000000000000000000000000000000000000000000000000000000000815260040180806020018281038252600e8152602001807f496e76616c69642073746174652e00000000000000000000000000000000000081525060200191505060405180910390fd5b7f72c874aeff0b183a56e2b79c71b46e1aed4dee5e09862134b8821ba2fddbf8bf60405160405180910390a16007600a60026101000a81548160ff0219169083600881111561125957fe5b02179055506000809054906101000a900473ffffffffffffffffffffffffffffffffffffffff1673ffffffffffffffffffffffffffffffffffffffff166108fc479081150290604051600060405180830381858888f193505050501580156112c5573d6000803e3d6000fd5b5050565b600160009054906101000a900473ffffffffffffffffffffffffffffffffffffffff1673ffffffffffffffffffffffffffffffffffffffff163373ffffffffffffffffffffffffffffffffffffffff161461138c576040517f08c379a000000000000000000000000000000000000000000000000000000000815260040180806020018281038252601e8152602001807f4f6e6c79207468652072656e7465722063616e2063616c6c20746869732e000081525060200191505060405180910390fd5b600180600881111561139a57fe5b600a60029054906101000a900460ff1660088111156113b557fe5b14611428576040517f08c379a000000000000000000000000000000000000000000000000000000000815260040180806020018281038252600e8152602001807f496e76616c69642073746174652e00000000000000000000000000000000000081525060200191505060405180910390fd5b600954421015611483576040517f08c379a00000000000000000000000000000000000000000000000000000000081526004018080602001828103825260218152602001806132886021913960400191505060405180910390fd5b6008544210156114fb576040517f08c379a00000000000000000000000000000000000000000000000000000000081526004018080602001828103825260158152602001807f52656e746572207374696c6c206861732074696d65000000000000000000000081525060200191505060405180910390fd5b6007600a60026101000a81548160ff0219169083600881111561151a57fe5b02179055506003600a60036101000a81548160ff0219169083600381111561153e57fe5b02179055506000809054906101000a900473ffffffffffffffffffffffffffffffffffffffff1673ffffffffffffffffffffffffffffffffffffffff166108fc600254600554039081150290604051600060405180830381858888f193505050501580156115b0573d6000803e3d6000fd5b50600160009054906101000a900473ffffffffffffffffffffffffffffffffffffffff1673ffffffffffffffffffffffffffffffffffffffff166108fc600354600454019081150290604051600060405180830381858888f1935050505015801561161f573d6000803e3d6000fd5b507f8698b0298fa01fc468c9c9fc5cb4de40fe17acf1d0b642e5271a9fc06dce44e160405160405180910390a150565b6000809054906101000a900473ffffffffffffffffffffffffffffffffffffffff1673ffffffffffffffffffffffffffffffffffffffff163373ffffffffffffffffffffffffffffffffffffffff1614611711576040517f08c379a000000000000000000000000000000000000000000000000000000000815260040180806020018281038252601e8152602001807f4f6e6c7920746865206c656e6465722063616e2063616c6c20746869732e000081525060200191505060405180910390fd5b600580600881111561171f57fe5b600a60029054906101000a900460ff16600881111561173a57fe5b146117ad576040517f08c379a000000000000000000000000000000000000000000000000000000000815260040180806020018281038252600e8152602001807f496e76616c69642073746174652e00000000000000000000000000000000000081525060200191505060405180910390fd5b600954421015611808576040517f08c379a00000000000000000000000000000000000000000000000000000000081526004018080602001828103825260218152602001806132886021913960400191505060405180910390fd5b600a60009054906101000a900460ff161561188b576040517f08c379a00000000000000000000000000000000000000000000000000000000081526004018080602001828103825260108152602001807f4e696365207472792c206275636b2d6f0000000000000000000000000000000081525060200191505060405180910390fd5b6001600a60006101000a81548160ff0219169083151502179055506000809054906101000a900473ffffffffffffffffffffffffffffffffffffffff1673ffffffffffffffffffffffffffffffffffffffff166108fc600354600554019081150290604051600060405180830381858888f19350505050158015611913573d6000803e3d6000fd5b507fae967b7041d822c67d876641e90eca430ef9ceec7abeb0584d8c7440e99b7afb60405160405180910390a150565b6000809054906101000a900473ffffffffffffffffffffffffffffffffffffffff1673ffffffffffffffffffffffffffffffffffffffff163373ffffffffffffffffffffffffffffffffffffffff1614611a05576040517f08c379a000000000000000000000000000000000000000000000000000000000815260040180806020018281038252601e8152602001807f4f6e6c7920746865206c656e6465722063616e2063616c6c20746869732e000081525060200191505060405180910390fd5b6003806008811115611a1357fe5b600a60029054906101000a900460ff166008811115611a2e57fe5b14611aa1576040517f08c379a000000000000000000000000000000000000000000000000000000000815260040180806020018281038252600e8152602001807f496e76616c69642073746174652e00000000000000000000000000000000000081525060200191505060405180910390fd5b6008544210611b18576040517f08c379a00000000000000000000000000000000000000000000000000000000081526004018080602001828103825260158152602001807f4c656e64696e67206861732074696d6564206f7574000000000000000000000081525060200191505060405180910390fd5b600854600754600202420111611b79576040517f08c379a00000000000000000000000000000000000000000000000000000000081526004018080602001828103825260548152602001806132f56054913960600191505060405180910390fd5b6004600a60026101000a81548160ff02191690836008811115611b9857fe5b0217905550600754420160098190555060075460020242016008819055506001600a60036101000a81548160ff02191690836003811115611bd557fe5b02179055507fd13541fec49ddfe6506bd24beb60ef9848b97496dc0d1a3df2daa8b916ead8a560405160405180910390a150565b6000809054906101000a900473ffffffffffffffffffffffffffffffffffffffff1673ffffffffffffffffffffffffffffffffffffffff163373ffffffffffffffffffffffffffffffffffffffff1614611ccb576040517f08c379a000000000000000000000000000000000000000000000000000000000815260040180806020018281038252601e8152602001807f4f6e6c7920746865206c656e6465722063616e2063616c6c20746869732e000081525060200191505060405180910390fd5b6001806008811115611cd957fe5b600a60029054906101000a900460ff166008811115611cf457fe5b14611d67576040517f08c379a000000000000000000000000000000000000000000000000000000000815260040180806020018281038252600e8152602001807f496e76616c69642073746174652e00000000000000000000000000000000000081525060200191505060405180910390fd5b600954421015611dc2576040517f08c379a00000000000000000000000000000000000000000000000000000000081526004018080602001828103825260218152602001806132886021913960400191505060405180910390fd5b6002600a60026101000a81548160ff02191690836008811115611de157fe5b021790555060075442016009819055506001600a60036101000a81548160ff02191690836003811115611e1057fe5b02179055507f879a578acc8e890dc45be169663f950045639f52282d9c33227bb6f4a49c862b60405160405180910390a150565b6000809054906101000a900473ffffffffffffffffffffffffffffffffffffffff1673ffffffffffffffffffffffffffffffffffffffff163373ffffffffffffffffffffffffffffffffffffffff161415611e9e57600080fd5b6000806008811115611eac57fe5b600a60029054906101000a900460ff166008811115611ec757fe5b14611f3a576040517f08c379a000000000000000000000000000000000000000000000000000000000815260040180806020018281038252600e8152602001807f496e76616c69642073746174652e00000000000000000000000000000000000081525060200191505060405180910390fd5b600854600654420110611f98576040517f08c379a00000000000000000000000000000000000000000000000000000000081526004018080602001828103825260218152602001806132d46021913960400191505060405180910390fd5b60025460045401341015611ff7576040517f08c379a000000000000000000000000000000000000000000000000000000000815260040180806020018281038252602b8152602001806132a9602b913960400191505060405180910390fd5b6001600a60026101000a81548160ff0219169083600881111561201657fe5b021790555033600160006101000a81548173ffffffffffffffffffffffffffffffffffffffff021916908373ffffffffffffffffffffffffffffffffffffffff1602179055506004543403600381905550600654420160088190555060075442016009819055507f52c94ab95e65d81eedb7948a0e0ae1d4466d0271cab9fe0eee54d646be8d348260405160405180910390a150565b600160009054906101000a900473ffffffffffffffffffffffffffffffffffffffff1673ffffffffffffffffffffffffffffffffffffffff163373ffffffffffffffffffffffffffffffffffffffff161461216f576040517f08c379a000000000000000000000000000000000000000000000000000000000815260040180806020018281038252601e8152602001807f4f6e6c79207468652072656e7465722063616e2063616c6c20746869732e000081525060200191505060405180910390fd5b600380600881111561217d57fe5b600a60029054906101000a900460ff16600881111561219857fe5b1461220b576040517f08c379a000000000000000000000000000000000000000000000000000000000815260040180806020018281038252600e8152602001807f496e76616c69642073746174652e00000000000000000000000000000000000081525060200191505060405180910390fd5b600854421015612283576040517f08c379a00000000000000000000000000000000000000000000000000000000081526004018080602001828103825260158152602001807f52656e746572207374696c6c206861732074696d65000000000000000000000081525060200191505060405180910390fd5b6009544210156122de576040517f08c379a00000000000000000000000000000000000000000000000000000000081526004018080602001828103825260218152602001806132886021913960400191505060405180910390fd5b6007600a60026101000a81548160ff021916908360088111156122fd57fe5b02179055506003600a60036101000a81548160ff0219169083600381111561232157fe5b0217905550600160009054906101000a900473ffffffffffffffffffffffffffffffffffffffff1673ffffffffffffffffffffffffffffffffffffffff166108fc6002549081150290604051600060405180830381858888f19350505050158015612390573d6000803e3d6000fd5b506000809054906101000a900473ffffffffffffffffffffffffffffffffffffffff1673ffffffffffffffffffffffffffffffffffffffff166108fc6002549081150290604051600060405180830381858888f193505050501580156123fa573d6000803e3d6000fd5b507f40da1c394a6e222d4d71cf937212c0c7d08475a510a394eb302689ab06a7bc9860405160405180910390a150565b600160009054906101000a900473ffffffffffffffffffffffffffffffffffffffff1673ffffffffffffffffffffffffffffffffffffffff163373ffffffffffffffffffffffffffffffffffffffff16146124ed576040517f08c379a000000000000000000000000000000000000000000000000000000000815260040180806020018281038252601e8152602001807f4f6e6c79207468652072656e7465722063616e2063616c6c20746869732e000081525060200191505060405180910390fd5b60028060088111156124fb57fe5b600a60029054906101000a900460ff16600881111561251657fe5b14612589576040517f08c379a000000000000000000000000000000000000000000000000000000000815260040180806020018281038252600e8152602001807f496e76616c69642073746174652e00000000000000000000000000000000000081525060200191505060405180910390fd5b6009544210156125e4576040517f08c379a00000000000000000000000000000000000000000000000000000000081526004018080602001828103825260218152602001806132886021913960400191505060405180910390fd5b60085442101561265c576040517f08c379a00000000000000000000000000000000000000000000000000000000081526004018080602001828103825260158152602001807f52656e746572207374696c6c206861732074696d65000000000000000000000081525060200191505060405180910390fd5b6007600a60026101000a81548160ff0219169083600881111561267b57fe5b02179055506003600a60036101000a81548160ff0219169083600381111561269f57fe5b02179055506000809054906101000a900473ffffffffffffffffffffffffffffffffffffffff1673ffffffffffffffffffffffffffffffffffffffff166108fc600254600554039081150290604051600060405180830381858888f19350505050158015612711573d6000803e3d6000fd5b50600160009054906101000a900473ffffffffffffffffffffffffffffffffffffffff1673ffffffffffffffffffffffffffffffffffffffff166108fc600354600454019081150290604051600060405180830381858888f19350505050158015612780573d6000803e3d6000fd5b507f8698b0298fa01fc468c9c9fc5cb4de40fe17acf1d0b642e5271a9fc06dce44e160405160405180910390a150565b6000809054906101000a900473ffffffffffffffffffffffffffffffffffffffff1681565b600a60029054906101000a900460ff1681565b600160009054906101000a900473ffffffffffffffffffffffffffffffffffffffff1673ffffffffffffffffffffffffffffffffffffffff163373ffffffffffffffffffffffffffffffffffffffff16146128ab576040517f08c379a000000000000000000000000000000000000000000000000000000000815260040180806020018281038252601e8152602001807f4f6e6c79207468652072656e7465722063616e2063616c6c20746869732e000081525060200191505060405180910390fd5b60028060088111156128b957fe5b600a60029054906101000a900460ff1660088111156128d457fe5b14612947576040517f08c379a000000000000000000000000000000000000000000000000000000000815260040180806020018281038252600e8152602001807f496e76616c69642073746174652e00000000000000000000000000000000000081525060200191505060405180910390fd5b60095442106129be576040517f08c379a000000000000000000000000000000000000000000000000000000000815260040180806020018281038252601c8152602001807f596f75206d69737365642074686520677261636520706572696f642e0000000081525060200191505060405180910390fd5b6007600a60026101000a81548160ff021916908360088111156129dd57fe5b02179055506002600a60036101000a81548160ff02191690836003811115612a0157fe5b02179055507f40da1c394a6e222d4d71cf937212c0c7d08475a510a394eb302689ab06a7bc9860405160405180910390a150565b6000809054906101000a900473ffffffffffffffffffffffffffffffffffffffff1673ffffffffffffffffffffffffffffffffffffffff163373ffffffffffffffffffffffffffffffffffffffff1614612af7576040517f08c379a000000000000000000000000000000000000000000000000000000000815260040180806020018281038252601e8152602001807f4f6e6c7920746865206c656e6465722063616e2063616c6c20746869732e000081525060200191505060405180910390fd5b6004806008811115612b0557fe5b600a60029054906101000a900460ff166008811115612b2057fe5b14612b93576040517f08c379a000000000000000000000000000000000000000000000000000000000815260040180806020018281038252600e8152602001807f496e76616c69642073746174652e00000000000000000000000000000000000081525060200191505060405180910390fd5b600854421015612c0b576040517f08c379a00000000000000000000000000000000000000000000000000000000081526004018080602001828103825260158152602001807f52656e746572207374696c6c206861732074696d65000000000000000000000081525060200191505060405180910390fd5b600954421015612c66576040517f08c379a00000000000000000000000000000000000000000000000000000000081526004018080602001828103825260218152602001806132886021913960400191505060405180910390fd5b6007600a60026101000a81548160ff02191690836008811115612c8557fe5b02179055506003600a60036101000a81548160ff02191690836003811115612ca957fe5b02179055506000809054906101000a900473ffffffffffffffffffffffffffffffffffffffff1673ffffffffffffffffffffffffffffffffffffffff166108fc479081150290604051600060405180830381858888f19350505050158015612d15573d6000803e3d6000fd5b507f2947d0330e41ff9f711a43cab2d1a2111f80d7555cbba8ac12b5b49a9bad45db60405160405180910390a150565b6001806008811115612d5357fe5b600a60029054906101000a900460ff166008811115612d6e57fe5b14612de1576040517f08c379a000000000000000000000000000000000000000000000000000000000815260040180806020018281038252600e8152602001807f496e76616c69642073746174652e00000000000000000000000000000000000081525060200191505060405180910390fd5b6009544210612e58576040517f08c379a000000000000000000000000000000000000000000000000000000000815260040180806020018281038252601c8152602001807f596f75206d69737365642074686520677261636520706572696f642e0000000081525060200191505060405180910390fd5b6007600a60026101000a81548160ff02191690836008811115612e7757fe5b0217905550600160009054906101000a900473ffffffffffffffffffffffffffffffffffffffff1673ffffffffffffffffffffffffffffffffffffffff166108fc600354600454019081150290604051600060405180830381858888f19350505050158015612eea573d6000803e3d6000fd5b506000809054906101000a900473ffffffffffffffffffffffffffffffffffffffff1673ffffffffffffffffffffffffffffffffffffffff166108fc479081150290604051600060405180830381858888f19350505050158015612f52573d6000803e3d6000fd5b507f72c874aeff0b183a56e2b79c71b46e1aed4dee5e09862134b8821ba2fddbf8bf60405160405180910390a150565b600a60039054906101000a900460ff1681565b600160009054906101000a900473ffffffffffffffffffffffffffffffffffffffff1673ffffffffffffffffffffffffffffffffffffffff163373ffffffffffffffffffffffffffffffffffffffff1614613058576040517f08c379a000000000000000000000000000000000000000000000000000000000815260040180806020018281038252601e8152602001807f4f6e6c79207468652072656e7465722063616e2063616c6c20746869732e000081525060200191505060405180910390fd5b600580600881111561306657fe5b600a60029054906101000a900460ff16600881111561308157fe5b146130f4576040517f08c379a000000000000000000000000000000000000000000000000000000000815260040180806020018281038252600e8152602001807f496e76616c69642073746174652e00000000000000000000000000000000000081525060200191505060405180910390fd5b60095442101561314f576040517f08c379a00000000000000000000000000000000000000000000000000000000081526004018080602001828103825260218152602001806132886021913960400191505060405180910390fd5b600a60019054906101000a900460ff16156131d2576040517f08c379a00000000000000000000000000000000000000000000000000000000081526004018080602001828103825260108152602001807f4e696365207472792c206275636b2d6f0000000000000000000000000000000081525060200191505060405180910390fd5b6001600a60016101000a81548160ff021916908315150217905550600160009054906101000a900473ffffffffffffffffffffffffffffffffffffffff1673ffffffffffffffffffffffffffffffffffffffff166108fc6004549081150290604051600060405180830381858888f19350505050158015613257573d6000803e3d6000fd5b507f9abe8c94e765c400235bdc5fa6e20d95425524b5e2b4296cbf685b795329cb0560405160405180910390a15056fe5761697420756e74696c2074686520677261636520706572696f6420656e64732e4e6f7420656e6f7567682066756e647320666f72207061796d656e7420616e6420636f6c6c61746572616c4e6f7420656e6f7567682072656d61696e696e672074696d6520746f2072656e7452657475726e20736368656475656c6420746f6f206561726c792c207761697420756e74696c2077697468696e2074776f20677261636520706572696f6473206265666f72652074686520646561646c696e652ea265627a7a72315820a9fe8b924175d652a95a5d3d007df056fa2d88e88d06075bc87491e876c0872564736f6c63430005100032496e76616c69642074696d656672616d652c20616c6c6f7720666f722074776f20677261636520706572696f6473206265747765656e2074686520656e64206f66207468652072656e74616c20706572696f6420616e642074686520646561646c696e652e506c65617365206d616b6520736d6172742063686f6963657320696e20796f7572207061796d656e7420736368656d652e20526566657220746f20646f63756d656e746174696f6e20666f722073756767657374696f6e732e",
  "source": "pragma solidity >=0.4.22 <0.7.0;\n\ncontract LoanContract {\n\taddress payable public lender;\n    address payable public renter;\n\n    uint paymentAmount;\n    uint paymentStored;\n    uint renterCollateral;\n    uint lenderCollateral;\n\n    uint rentPeriod;\n    uint graceTime;\n    uint deadline;\n    uint graceDeadline;\n\n    bool lenderPaid;\n    bool renterRefunded;\n\n\tenum State { Created, Collaterized, Transferring, Loaned, ReturnScheduled, Returned, Refund, Inactive, Late }\n\tenum Standing { Friendly, Unconfirmed, Dispute, Unresponsive }\n    State public state;\n    Standing public standing;\n\n    modifier onlyRenter() {\n        require(\n            msg.sender == renter,\n            \"Only the renter can call this.\"\n        );\n        _;\n    }\n\n    modifier onlyLender() {\n        require(\n            msg.sender == lender,\n            \"Only the lender can call this.\"\n        );\n        _;\n    }\n\n    modifier  notLender() { \n    \trequire(msg.sender != lender); \n    \t_; \n    }\n    \n\n    modifier inState(State _state) {\n        require(\n            state == _state,\n            \"Invalid state.\"\n        );\n        _;\n    }\n\n    modifier timedOut() { \n    \trequire(\n    \t\tnow >= deadline,\n    \t\t\"Renter still has time\"\n    \t); \n    \t_; \n    }\n\n    modifier notTimedOut() {\n    \trequire(\n    \t\tnow < deadline,\n    \t\t\"Lending has timed out\"\n    \t); \n    \t_;\n    }\n\n    modifier inGracePeriod() { \n    \trequire (\n    \t\tnow < graceDeadline,\n    \t\t\"You missed the grace period.\"\n    \t);\n    \t_; \n    }\n\n    modifier afterGracePeriod() { \n    \trequire (\n    \t\tnow >= graceDeadline,\n    \t\t\"Wait until the grace period ends.\"\n    \t); \n    \t_; \n    }\n\n    event Created();\n    event ContractFunded();\n    event Aborted();\n    event InvitationToTrade();\n    event ItemLoaned();\n    event ReturnScheduled();\n    event ItemReturned();\n    event RenterRefunded();\n    event LenderPaid();\n    event RenterInactivity();\n    event LenderInactivity();\n    event RenterDisputed();\n    event LenderDisputed();\n\n    /// Here the renter sets the terms of the rental agreement.\n    /// They initialize with their collateral and set the following variables\n    /// paymentAmount: the cost they wish for rental\n    /// renterCollateral: the amount of collateral they wish for the renter to provide\n    /// rentPeriod: the approximate amount of time for renting (+/- a grace period or two)\n    /// deadline: the time at which the renter must have their item back by\n    /// graceTime: how long will people be given to dispute messages the other party sends to the contract\n    /// as well as time to take the actions required to transfer the item back and forth\n    constructor(uint _requiredPayment, uint _requiredRenterCollateral, uint _rentTime, uint _deadline, uint _graceTimePeriod) public payable {\n        lender = msg.sender;\n        lenderCollateral = msg.value;\n        \n        renterCollateral = _requiredRenterCollateral;\n        paymentAmount = _requiredPayment;\n\n\n        require (\n        \tpaymentAmount > renterCollateral && paymentAmount > lenderCollateral,\n        \t\"Please make smart choices in your payment scheme. Refer to documentation for suggestions.\"\n        );\n        \n\n        require(\n        \tnow + _rentTime + 2*_graceTimePeriod < _deadline,\n        \t\"Invalid timeframe, allow for two grace periods between the end of the rental period and the deadline.\"\n        );\n        \n        rentPeriod = _rentTime;\n        deadline = _deadline;\n        graceTime = _graceTimePeriod;\n\n        lenderPaid = false;\n        renterRefunded = false;\n\n        emit Created();\n    }\n\n    /// Abort the purchase and reclaim the ether.\n    /// Can only be called by the lender before\n    /// the contract is put in motion.\n    function abort()\n        public\n        onlyLender\n        inState(State.Created)\n    {\n        emit Aborted();\n        state = State.Inactive;\n        lender.transfer(address(this).balance);\n    }\n\n    /// This is how the renter enters the contract\n    function fundAsRenter()\n    \tpublic\n\t    payable\n\t    notLender\n\t    inState(State.Created)\n\t{\n\t\trequire(\n\t\t\t(now + rentPeriod < deadline),\n\t\t\t\"Not enough remaining time to rent\"\n\t\t);\n\t\trequire(\n\t\t\tmsg.value >= renterCollateral + paymentAmount,\n\t\t\t\"Not enough funds for payment and collateral\"\n\t\t);\n\n\t\tstate = State.Collaterized;\n\n\t\trenter = msg.sender;\n\t\tpaymentStored = msg.value - renterCollateral;\n\t\tdeadline = now + rentPeriod;\n\t\tgraceDeadline = now + graceTime;\n\t\temit ContractFunded();\n\t}\n\n    /// Fuzzy Abort\n    /// Works within the grace period of the Renter funding\n    /// Either person can back out during this period\n    /// The period should be used for communication and scheduling\n    function fuzzyAbort()\n    \tpublic\n    \tinState(State.Collaterized)\n    \tinGracePeriod\n    {\n    \tstate = State.Inactive;\n    \trenter.transfer(renterCollateral + paymentStored);\n    \tlender.transfer(address(this).balance);\n    \temit Aborted();\n    }\n\n    /// Confirm that you (the lender) will send the item.\n    /// This begins the transfer period which is graceTime in length\n    function Giving()\n        public\n        onlyLender\n        inState(State.Collaterized)\n        afterGracePeriod\n    {\n        state = State.Transferring;\n        graceDeadline = now + graceTime;\n        standing = Standing.Unconfirmed;\n        emit InvitationToTrade();\n    }\n\n    /// Confirm receipt of item within grace period and end grace period\n    function Recieved()\n    \tpublic\n    \tonlyRenter\n    \tinState(State.Transferring)\n    \tinGracePeriod\n    {\n    \tstate = State.Loaned;\n    \tgraceDeadline = now;\n    \tstanding = Standing.Friendly;\n    \temit ItemLoaned();\n    }\n\n\n    /////////////////////////////////////////////////////\n    /////////  This is when the renting happens  ////////\n    /////////////////////////////////////////////////////\n\n\n    /// The Lender schedules a return with one grace period of the deadline\n    /// This begins the transfer period which is graceTime in length\n    function scheduleReturn()\n    \tpublic\n    \tonlyLender\n    \tinState(State.Loaned)\n    \tnotTimedOut\n    {\n    \trequire(\n    \t\tnow + 2*graceTime > deadline,\n    \t\t\"Return schedueld too early, wait until within two grace periods before the deadline.\"\n    \t);\n    \t\n    \tstate = State.ReturnScheduled;\n    \tgraceDeadline = now + graceTime;\n    \tdeadline = now + 2*graceTime;\n    \tstanding = Standing.Unconfirmed;\n    \temit ReturnScheduled();\n    }\n\n    /// Confirm that you (the renter) returned the item.\n    function confirmReturned()\n    \tpublic\n    \tonlyRenter\n    \tinState(State.ReturnScheduled)\n    \tinGracePeriod\n    {\n    \tstate = State.Returned;\n    \tgraceDeadline = now + graceTime;\n    \tstanding = Standing.Friendly;\n    \temit ItemReturned();\n    }\n\n    /// This pays and refunds the lender\n\tfunction payLender()\n        public\n        onlyLender\n        inState(State.Returned)\n        afterGracePeriod\n    {\n    \trequire (\n    \t\t!lenderPaid,\n    \t\t\"Nice try, buck-o\"\n    \t);\n\n        lenderPaid = true;\n    \tlender.transfer(lenderCollateral + paymentStored);\n        emit LenderPaid();\n    }\n\n    /// This function refunds the renter\n    function refundRenterCollateral()\n        public\n        onlyRenter\n        inState(State.Returned)\n        afterGracePeriod\n    {\n    \trequire (\n    \t\t!renterRefunded,\n    \t\t\"Nice try, buck-o\"\n    \t);\n\n        renterRefunded = true;\n    \trenter.transfer(renterCollateral);\n        emit RenterRefunded();\n    }\n\n    /////////////////////////////////////////////////////\n    /// This section starts the dispute framework ///////\n    /////////////////////////////////////////////////////\n\n    /// If an inattentive or dumb malicious renter stops responding\n    /// The lender is then paid the maximum amount for the item\n    function neverReturned()\n    \tpublic\n    \tonlyLender\n    \tinState(State.ReturnScheduled)\n    \ttimedOut\n    \tafterGracePeriod\n    {\n    \tstate = State.Inactive;\n    \tstanding = Standing.Unresponsive;\n    \tlender.transfer(address(this).balance);\n    \temit RenterInactivity();\n    }\n\n    /// If the lender refuses to initiate takeback of the item\n    /// they can complain to invoke bought rented item dispute\n    /// here, the item is bought, in the eyes of the renter, for the price of renting plus price of collateral\n    /// in the eyes of the lender, it is bought for the price of the renting cost\n    /// This is a bad deal for both with minimal losses\n    function cannotReturn()\n    \tpublic\n    \tonlyRenter\n    \tinState(State.Loaned)\n    \ttimedOut\n    \tafterGracePeriod\n    {\n    \tstate = State.Inactive;\n    \tstanding = Standing.Unresponsive;\n    \trenter.transfer(paymentAmount);\n    \tlender.transfer(paymentAmount);\n    \temit RenterDisputed();\n    }\n\n    /// If the Lender isn't giving the Renter the chance to return\n    /// The Renter is given the option of a scorched earth abort to avoid neverReturned()\n    /// To dissuade malicious use of this, this costs everything from all parties\n    function blameReturn()\n    \tpublic\n    \tonlyRenter\n    \tinState(State.ReturnScheduled)\n    \tinGracePeriod\n    {\n    \tstate = State.Inactive;\n    \tstanding = Standing.Dispute;\n    \temit RenterDisputed();\n    }\n\n    /// If the Renter falsely claims they returned\n    /// The Lender is given the option of a scorched earth abort\n    /// To dissuade malicious use of this, this costs everything from all parties\n    /// This needs work, probably\n    function claimFalseReturn()\n    \tpublic\n    \tonlyLender\n    \tinState(State.Returned)\n    \tinGracePeriod\n    {\n    \tstate = State.Inactive;\n    \tstanding = Standing.Dispute;\n    \temit LenderDisputed();\n    }\n\n    /// If, after collaterized, the giving process does not go well for the Renter\n    /// Then they are given the option to scorched earth abort\n    /// To dissuade malicious use of this, this costs everything from all parties\n    function blameGive()\n    \tpublic\n    \tonlyRenter\n    \tinState(State.Transferring)\n    \tinGracePeriod\n    {\n    \tstate = State.Inactive;\n    \tstanding = Standing.Dispute;\n    \temit RenterDisputed();\n    }\n\n    /// If the grace period for initial transferring expires and the renter does not signal success or blame\n    /// Then it is likely that the renter didn't respond as they were given chance to both positively and negatively\n    /// Therefore a partial abort is done with payment slashed\n    function cannotGive()\n    \tpublic\n    \tonlyLender\n    \tinState(State.Transferring)\n    \tafterGracePeriod\n    \tnotTimedOut\n    {\n    \tstate = State.Inactive;\n    \tstanding = Standing.Unresponsive;\n    \tlender.transfer(lenderCollateral);\n    \trenter.transfer(renterCollateral);\n    \temit RenterInactivity();\n    }\n\n    /// If the Lender is truly unresponsive, the Renter has a failsafe with a full refund for them\n    /// and a partial slashing of the Lender\n    function timeOutAfterGive()\n    \tpublic\n    \tonlyRenter\n    \tinState(State.Transferring)\n    \tafterGracePeriod\n    \ttimedOut\n    {\n    \tstate = State.Inactive;\n    \tstanding = Standing.Unresponsive;\n    \tlender.transfer(lenderCollateral - paymentAmount);\n    \trenter.transfer(renterCollateral + paymentStored);\n    \temit LenderInactivity();\n    }\n\n    /// If the Lender is truly unresponsive, the Renter has a failsafe with a full refund for them\n    /// and a partial slashing of the Lender\n    function timeOutOnGive()\n    \tpublic\n    \tonlyRenter\n    \tinState(State.Collaterized)\n    \tafterGracePeriod\n    \ttimedOut\n    {\n    \tstate = State.Inactive;\n    \tstanding = Standing.Unresponsive;\n    \tlender.transfer(lenderCollateral - paymentAmount);\n    \trenter.transfer(renterCollateral + paymentStored);\n    \temit LenderInactivity();\n    }\n}",
  "sourcePath": "/home/albertbrown/Documents/hash-timelock-loan/contracts/LoanContract.sol",
  "compiler": {
    "name": "solc",
    "version": "0.5.16+commit.9c3226ce.Emscripten.clang"
  },
  "schemaVersion": "3.0.21",
  "updatedAt": "2020-01-24T19:03:39.879Z",
  "devdoc": {
    "methods": {}
  },
  "userdoc": {
    "methods": {
      "Giving()": {
        "notice": "Confirm that you (the lender) will send the item. This begins the transfer period which is graceTime in length"
      },
      "Recieved()": {
        "notice": "Confirm receipt of item within grace period and end grace period"
      },
      "abort()": {
        "notice": "Abort the purchase and reclaim the ether. Can only be called by the lender before the contract is put in motion."
      },
      "blameGive()": {
        "notice": "If, after collaterized, the giving process does not go well for the Renter Then they are given the option to scorched earth abort To dissuade malicious use of this, this costs everything from all parties"
      },
      "blameReturn()": {
        "notice": "If the Lender isn't giving the Renter the chance to return The Renter is given the option of a scorched earth abort to avoid neverReturned() To dissuade malicious use of this, this costs everything from all parties"
      },
      "cannotGive()": {
        "notice": "If the grace period for initial transferring expires and the renter does not signal success or blame Then it is likely that the renter didn't respond as they were given chance to both positively and negatively Therefore a partial abort is done with payment slashed"
      },
      "cannotReturn()": {
        "notice": "If the lender refuses to initiate takeback of the item they can complain to invoke bought rented item dispute here, the item is bought, in the eyes of the renter, for the price of renting plus price of collateral in the eyes of the lender, it is bought for the price of the renting cost This is a bad deal for both with minimal losses"
      },
      "claimFalseReturn()": {
        "notice": "If the Renter falsely claims they returned The Lender is given the option of a scorched earth abort To dissuade malicious use of this, this costs everything from all parties This needs work, probably"
      },
      "confirmReturned()": {
        "notice": "Confirm that you (the renter) returned the item."
      },
      "constructor": "Here the renter sets the terms of the rental agreement. They initialize with their collateral and set the following variables paymentAmount: the cost they wish for rental renterCollateral: the amount of collateral they wish for the renter to provide rentPeriod: the approximate amount of time for renting (+/- a grace period or two) deadline: the time at which the renter must have their item back by graceTime: how long will people be given to dispute messages the other party sends to the contract as well as time to take the actions required to transfer the item back and forth",
      "fundAsRenter()": {
        "notice": "This is how the renter enters the contract"
      },
      "fuzzyAbort()": {
        "notice": "Fuzzy Abort Works within the grace period of the Renter funding Either person can back out during this period The period should be used for communication and scheduling"
      },
      "neverReturned()": {
        "notice": "////////////////////////////////////////////////// This section starts the dispute framework /////// ////////////////////////////////////////////////// If an inattentive or dumb malicious renter stops responding The lender is then paid the maximum amount for the item"
      },
      "payLender()": {
        "notice": "This pays and refunds the lender"
      },
      "refundRenterCollateral()": {
        "notice": "This function refunds the renter"
      },
      "scheduleReturn()": {
        "notice": "////////////////////////////////////////////////// //////  This is when the renting happens  //////// ////////////////////////////////////////////////// The Lender schedules a return with one grace period of the deadline This begins the transfer period which is graceTime in length"
      },
      "timeOutAfterGive()": {
        "notice": "If the Lender is truly unresponsive, the Renter has a failsafe with a full refund for them and a partial slashing of the Lender"
      },
      "timeOutOnGive()": {
        "notice": "If the Lender is truly unresponsive, the Renter has a failsafe with a full refund for them and a partial slashing of the Lender"
      }
    }
  }
}